:1000000049C0000065C0000063C0000061C000007E
:100010005FC000005DC000005BC0000059C0000070
:1000200057C0000055C0000053C0000051C0000080
:100030000C94760D4DC000004BC0000049C000007C
:10004000ABC7000045C0000043C0000041C0000035
:100050003FC000003DC000003BC0000039C00000B0
:1000600037C0000035C0000033C0000031C00000C0
:100070002FC000002DC000002BC0000029C00000D0
:1000800027C0000025C0000023C0000021C00000E0
:100090001FC0000011241FBECFEFD0E1DEBFCDBFD7
:1000A00011E0A0E0B1E0EEE9F0E200E00BBF02C039
:1000B00007900D92A830B107D9F721E0A8E0B1E090
:1000C00001C01D92A437B207E1F7A9D40C944D10DA
:1000D00097CFCF93DF93CDB7DEB78CE790E020E4E6
:1000E000FC0120838AE790E024E8FC0120838AE772
:1000F00090E02AE730E0F90120812064FC012083B0
:100100000000DF91CF910895CF93DF93CDB7DEB795
:100110008AE790E0FC018081882F90E08071992728
:10012000892B91F088E790E0FC0180819181909388
:100130005E0180935D018AE790E02AE730E0F901F3
:1001400020812065FC01208380915D0190915E01FA
:10015000DF91CF910895CF93DF9300D0CDB7DEB775
:100160008A8319828A818830C0F08DED90E0FC018D
:100170008081882F90E02A81222F30E02850310999
:1001800002C0959587952A95E2F78170992721E01D
:10019000892B09F020E0298315C08CED90E0FC014B
:1001A0008081882F90E02A81222F30E002C095952F
:1001B00087952A95E2F78170992721E0892B09F02C
:1001C00020E0298389810F900F90DF91CF910895CE
:1001D000CF93DF9300D0CDB7DEB788ED90E0FC0180
:1001E0001082198256C08DEE90E02981222F30E0D6
:1001F00022953295307F3227207F32272860FC01FC
:1002000020838EEE90E0FC0110828FEE90E0FC01E6
:10021000108280EF90E0FC01108281EF90E0FC0101
:10022000108282EF90E0FC01108283EF90E0FC01ED
:10023000108284EF90E0FC01108285EF90E0FC01D9
:10024000108286EF90E0FC01108287EF90E0FC01C5
:1002500010821A8218C08DEE90E02981222F30E0A2
:1002600022953295307F3227207F3227322F2A8104
:10027000232B2860FC0120838AEF90E0FC01108290
:100280008A818F5F8A838A81883028F389818F5F92
:10029000898389818F3008F4A6CF82EE90E022E036
:1002A000FC01208383EE90E02CE0FC01208384EEAF
:1002B00090E027E3FC0120838BED90E0FC011082AD
:1002C00088ED90E028ED30E0F90120812260FC010A
:1002D000208300000F900F90DF91CF910895CF936E
:1002E000DF9300D000D01F92CDB7DEB79B838A8307
:1002F0007D836C838DEE90E02A813B81F90124811E
:100300002295207FFC0120838A819B81FC018481CE
:1003100022DF882309F450C083EF90E02A813B81DB
:10032000F9012081318136952795369527953695A7
:100330002795FC01208382EF90E02A813B81F9011F
:10034000208131812295220F207EFC01208381EFC4
:1003500090E0FC01108280EF90E024E0FC0120831B
:1003600087EF90E02A813B81F90122813381369524
:1003700027953695279536952795FC01208386EF9E
:1003800090E02A813B81F901228133812295220F5D
:10039000207EFC01208385EF90E0FC01108284EF39
:1003A00090E0FC0110828FEE90E028ECFC012083AD
:1003B0008EEE90E0FC011082198224C08DEE90E058
:1003C0002A813B81F9012481222F30E02295329548
:1003D000307F3227207F3227322F2981232B28603C
:1003E000FC0120838981882F90E02C813D81820F40
:1003F000931F2AEF30E0F9012081FC0120838981DD
:100400008F5F898389818830C8F200000F900F9038
:100410000F900F900F90DF91CF910895CF93DF93BE
:1004200000D000D01F92CDB7DEB79B838A837D8337
:100430006C83198224C08DEE90E02A813B81F90102
:100440002481222F30E022953295307F3227207F81
:100450003227322F2981232B2860FC0120838AEF49
:1004600090E02981222F30E04C815D81240F351FDF
:10047000F9012081FC01208389818F5F8983898133
:100480008830C8F28DEE90E02A813B81F901248109
:100490002295207FFC0120838A819B81FC0184813D
:1004A0005ADE882309F444C08EEE90E0FC011082ED
:1004B00083EF90E02A813B81F901208131813695DB
:1004C00027953695279536952795FC01208382EF51
:1004D00090E02A813B81F901208131812295220F10
:1004E000207EFC01208381EF90E0FC01108280EFF0
:1004F00090E0FC01108287EF90E0FC01108286EF13
:1005000090E0FC01108285EF90E0FC01108284EF06
:1005100090E0FC0110828EEE90E0FC0110828FEEE4
:1005200090E028E4FC0120838EEE90E0FC01108234
:1005300000000F900F900F900F900F90DF91CF91D0
:100540000895CF93DF9300D01F92CDB7DEB7898394
:100550007B836A838981893710F088E789838A8160
:100560009B81893E9340E8F089818035D0F0898174
:10057000882F90E083549109880F991F092E000C51
:10058000AA0BBB0BBC01CD010E94360FDC01CB01D5
:1005900041E0BC01CD01FED79093010180930001A1
:1005A00006C088E097E0909301018093000100006D
:1005B0000F900F900F90DF91CF910895CF93DF931D
:1005C00000D0CDB7DEB780E290E0FC018081882FBB
:1005D00090E088709927959587959595879595953D
:1005E00087958093080180E290E0FC018081882F4C
:1005F00090E0807199279595879595958795959524
:100600008795959587958093090180E290E0FC019C
:100610008081882F90E08072992795958795959590
:1006200087959595879595958795959587958093C9
:100630000A0180E290E0FC018081882F90E08074C4
:100640009927082E892F000C881F990B000C881FF2
:10065000991F80930B0180E290E0FC018081881F4C
:100660008827881F80930C018CE290E0FC01808138
:10067000817080930D018CE290E0FC018081882FD5
:1006800090E0827099279595879580930E018CE272
:1006900090E0FC018081882F90E0847099279595E7
:1006A00087959595879580930F018CE290E0FC01EA
:1006B0008081882F90E080749927082E892F000C64
:1006C000881F990B000C881F991F809310018CE2E2
:1006D00090E0FC018081881F8827881F809311018A
:1006E00089E290E0FC01808181708093120189E2AF
:1006F00090E0FC018081882F90E082709927959589
:1007000087958093130189E290E0FC018081882F16
:1007100090E0847099279595879595958795809316
:1007200014011A82198280910801282F30E08091EB
:100730000901882F90E0880F991F282B392B809171
:100740000A01882F90E0880F991F880F991F282B86
:10075000392B80910B01882F90E0880F991F880F0B
:10076000991F880F991F282B392B80910C01882FF6
:1007700090E082959295907F9827807F9827282BEC
:10078000392B80910E01882F90E0880F991F829558
:100790009295907F9827807F9827282B392B8091DE
:1007A0000F01882F90E000249695879507949695E1
:1007B00087950794982F802D282B392B8091100135
:1007C000882F90E09695982F882797958795282BC6
:1007D000392B80911001882F90E0982F8827282BA3
:1007E000392B80911101882F90E0982F8827990F3D
:1007F000282B392B80911201882F90E0982F882781
:10080000990F990F282B392B80911301882F90E095
:10081000982F8827990F990F990F282B392B8091A2
:100820001401882F90E0982F88279295907F822B33
:10083000932B9C0189819A81822B932B9A838983A4
:1008400089819A810F900F90DF91CF910895CF9376
:10085000DF93CDB7DEB781E692E09093600180939D
:100860005F018AEC92E0909362018093610188E3DA
:1008700093E0909364018093630183E893E0909305
:1008800066018093650189EC93E090936801809301
:10089000670181E0809315010000DF91CF910895F9
:1008A000CF93DF9300D01F92CDB7DEB79B838A83AF
:1008B00080911501882309F4CADF8AE08093020140
:1008C00083E290E0FC018081882F90E08870992776
:1008D000892B19F4109202019AC019828AE0809340
:1008E00002018DC08981853078F58981882361F185
:1008F0008981882F90E00197880F991F815A9E4F18
:10090000FC01808191819C012E5131098A819B815A
:100910008217930708F46FC08981882F90E0880FB1
:10092000991F815A9E4FFC01808191819C01225E1A
:100930003F4F8A819B812817390708F45CC0898161
:100940008F5F8093020157C0809167019091680189
:100950009C012E5131098A819B818217930778F07F
:1009600080916701909168019C01225E3F4F8A81CE
:100970009B812817390718F085E080930201809148
:100980005F01909160019C01225E3F4F8A819B81B3
:100990002817390718F081E0809302018A819B8132
:1009A000CC01A0E0B0E0BC01CD010E94340FDC011D
:1009B000CB0128E431E64DEC53E4BC01CD010E94AB
:1009C0009C0E1816CCF08A819B81CC01A0E0B0E08F
:1009D000BC01CD010E94340FDC01CB0128E431E6DB
:1009E0004EEB53E4BC01CD010E94E60F882324F0B6
:1009F0001092020101C0000089818F5F898380917C
:100A000002018A3021F48981853008F46BCF80910E
:100A100002010F900F900F90DF91CF910895CF9228
:100A2000DF92EF92FF920F931F93CF93DF93CDB797
:100A3000DEB7C258D1090FB6F894DEBF0FBECDBFE6
:100A4000C7DB47DB2CD37BD245D280E091E09D838E
:100A50008C838FEF9FE09F838E83188680E092E0E7
:100A60009A8789871C861B8681E08D8780E096E0C7
:100A70009F8B8E8B8FEF9FEF998F888F82E08A8F6D
:100A800082E096E09CA38BA38FEF9FEF9EA38DA3A4
:100A900083E08FA382E092E099AB88AB8FEF9FEF6A
:100AA0009BAB8AAB84E08CAB81E092E09EAF8DAFD4
:100AB0002FEF3FEFCE01CF96DC012D933C93CE017B
:100AC0008F5B9F4F25E0FC012083CE01865B9F4F0B
:100AD00023E035E0DC012D933C93CE01865B9F4FF4
:100AE0002FEF3FEFFC0133832283CE01865B9F4FC4
:100AF00026E0DC0114962C93CE01895A9F4F26E004
:100B000036E0FC0131832083CE01895A9F4F2FEFBD
:100B10003FEFDC0113963C932E931297CE01895A36
:100B20009F4F27E0FC012483CE018C599F4F27E97A
:100B300037E0DC012D933C93CE018C599F4F2FEF72
:100B40003FEFFC0133832283CE018C599F4F28E075
:100B5000DC0114962C93CE018F589F4F21E132E097
:100B6000FC0131832083CE018F589F4FDC01139607
:100B70001C921E921297CE018F589F4F29E0FC01C4
:100B80002483CE0182589F4F2AE0DC012C93789475
:100B9000209128013091290140912A0150912B0187
:100BA0008091160190911701A0911801B09119013F
:100BB00079018A01E81AF90A0A0B1B0BD801C7014F
:100BC0000A97A105B10508F451C1809128019091BF
:100BD0002901A0912A01B0912B01809316019093D5
:100BE0001701A0931801B093190180911A018F5F2A
:100BF00080931A018091490187DA52DE282FCE01B5
:100C000082589F4FDC012C93CE0182589F4FFC01EC
:100C100080818E8780910001909101018F87809162
:100C2000000190910101892F9927888BC7DC898B5E
:100C3000C5DC892F99278A8B809172018B8B8091DB
:100C400073018C8B809169018D8B20915C01CE01A9
:100C50008A589F4FDC012C93CE018A589F4FFC018C
:100C60001182CE018A589F4FDC0112961C92CE0150
:100C70008A589F4FFC011382CE018A589F4FDC0196
:100C800014961C92CE018A589F4FFC011582CE010A
:100C90008A589F4FDC0116961C92CE018A589F4FAE
:100CA000FC0117829E01225F3F4FCE010996B901D8
:100CB000B5DB9E012A583F4FCE018F589F4FB90197
:100CC000ADDBCE0104966AE671E009DB9E01255E8C
:100CD0003F4FCE014696B90102DB9E01285D3F4F92
:100CE000CE018396B901FBDA9E012B5C3F4FCE010A
:100CF000C096B901F4DA9E012E5B3F4FCE01CD962E
:100D0000B901EDDA9E0127593F4FCE018C599F4F13
:100D1000B901E5DA9E01215B3F4FCE01865B9F4F13
:100D2000B901DDDA8C8D882F90E0382F22278B8D4A
:100D3000882F90E0822B932B90931C0180931B01B2
:100D40008DA980931D01CE01815B9F4FDC0113961D
:100D50008C91882F90E0382F2227CE01815B9F4F06
:100D6000FC018281882F90E0822B932B092E000CAE
:100D7000AA0BBB0BBC01CD010E94360FDC01CB01DD
:100D800020E030E040E251E4BC01CD01D9D7DC01E4
:100D9000CB0180931E0190931F01A0932001B0937B
:100DA0002101CE018E5B9F4FDC018C91809322014B
:100DB000CE018E5B9F4FFC01818180932301CE0188
:100DC00087599F4FDC0117968C91882F90E0382F20
:100DD0002227CE0187599F4FFC018681882F90E002
:100DE000822B932B092E000CAA0BBB0BBC01CD014F
:100DF0000E94360FDC01CB018093240190932501E2
:100E0000A0932601B093270145D6E0902401F090ED
:100E100025010091260110912701C158DF4FE8827A
:100E2000F9820A831B83CF57D040F0911D01409176
:100E30001B0150911C019E0122583F4FD901EC919A
:100E400060916C0170916D01C158DF4FC880D980ED
:100E5000EA80FB80CF57D0400F2F9A014E2F872F6B
:100E600070D180911B0190911C0180D080911A015A
:100E70008A3008F48DCE10921A014FD08091030170
:100E800090910401892B51F080910301909104010C
:100E9000019790930401809303017ACE8FA5882F48
:100EA00090E0382F22278EA5882F90E0822B932B5D
:100EB0009A83898389819A81992314F41A821982E9
:100EC00089818B8380911B0190911C01BC018B81D6
:100ED00038DB5ECECF93DF93CDB7DEB781E290E013
:100EE000FC01108284E290E026E3FC01208387E28B
:100EF00090E025E0FC0120838AE290E0FC01108272
:100F00008DE290E028E1FC01208380E390E0FC0189
:100F100010820000DF91CF910895CF93DF93CDB77A
:100F2000DEB788E290E028E230E0F901308124E089
:100F30002327FC0120830000DF91CF910895CF93F8
:100F4000DF93CDB7DEB784E490E02BE0FC01208393
:100F50008EE690E022E0FC01208387E490E029EF18
:100F6000FC0120830000DF91CF910895CF93DF93A0
:100F700000D0CDB7DEB79A83898385E290E025E281
:100F800030E0F90120812260FC01208300000F90F5
:100F90000F90DF91CF9108951F920F9200905F0004
:100FA0000F92112400905B000F928F929F92AF924C
:100FB000BF92CF92DF92EF92FF920F931F932F93E6
:100FC0003F934F935F936F937F938F939F93AF93D1
:100FD000BF93EF93FF93CF93DF93CDB7DEB78091AD
:100FE000280190912901A0912A01B0912B0101962D
:100FF000A11DB11D8093280190932901A0932A017E
:10100000B0932B0180911E0190911F01A0912001AE
:10101000B091210120912301E22EF12C2091220197
:10102000022F10E020911D01822E912C20910201AF
:10103000422F50E020916B01222F30E0B9016F5F09
:101040007F4F30916F0120916E01232BE22FF0E052
:101050005C016D019401CF0104D30000DF91CF91B9
:10106000FF91EF91BF91AF919F918F917F916F9180
:101070005F914F913F912F911F910F91FF90EF90B2
:10108000DF90CF90BF90AF909F908F900F90009285
:101090005B000F9000925F000F901F901895CF9308
:1010A000DF93CDB7DEB781E890E021E830E0F901C9
:1010B00020812A60FC0120838FE690E02FE630E05B
:1010C000F90120812260FC01208380915B0188234B
:1010D00009F404D00000DF91CF910895CF93DF93FE
:1010E000CDB7DEB741E060E070E087E093E452D234
:1010F000909342018093410141E060E070E080EA1A
:1011000090E448D29093400180933F0141E060E039
:1011100070E080EA90E43ED290933E0180933D01DE
:1011200041E060E070E08CE892E434D290934401B6
:101130008093430181E080935B010000DF91CF91B8
:101140000895CF92DF92EF92FF920F931F93CF9368
:10115000DF93CDB7DEB72A970FB6F894DEBF0FBE88
:10116000CDBF89836A834B833D832C830E83CF82DB
:10117000D886E986FA868E818130D1F58B818823E5
:10118000B9F18091300190913101892B89F58B81E2
:101190008130D9F420E030E04CE252E46F81788570
:1011A00089859A8513D7882384F08C819D81843624
:1011B000994158F081E0898381E080935C0188E562
:1011C00092E090933101809330018B81823080F0E6
:1011D0008C819D818834964258F081E0898381E03A
:1011E00080935C0188E592E0909331018093300117
:1011F0008091300190913101892B49F0809130012B
:10120000909131010A979093310180933001809140
:101210002F01882309F084C08981813021F08A81DF
:10122000813009F07DC010923601809128019091A3
:101230002901A0912A01B0912B0180934B01909339
:101240004C01A0934D01B0934E0189818823C1F1D7
:101250008B818430A8F580E991E0909335018093EB
:10126000340181E080932F011092320181E080935C
:1012700033018CE280932D01198210925C018B81E5
:10128000882321F48EE580932D0106C08B81813067
:1012900019F48CE280932D018B818F5F809345013F
:1012A0008B81813039F486E990E0909350018093EE
:1012B0004F0106C086E990E09093500180934F0162
:1012C0008A81882309F418C18B81882309F414C109
:1012D00080E991E0909335018093340181E080931F
:1012E0002F0182E080933201109233018CE28093CF
:1012F0002D0186E990E09093500180934F018B81FE
:101300008150809345018B81813009F0F5C081E0E7
:10131000809332018AEF80932D0110924501ECC039
:10132000209128013091290140912A0150912B01EF
:1013300080914B0190914C01A0914D01B0914E01D3
:10134000281B390B4A0B5B0B80914F019091500188
:10135000CC01A0E0B0E0281739074A075B0708F086
:10136000B8C0909145018B81981709F4B2C0809163
:101370004601882351F581E0809346018091320136
:10138000882F90E08130910571F082309105A1F0B5
:10139000892BD9F4809141019091420190933C01B5
:1013A00080933B0112C080913D0190913E0190934A
:1013B0003C0180933B0109C080913F019091400125
:1013C00090933C0180933B010000209128013091D3
:1013D000290140912A0150912B0180914B0190915C
:1013E0004C01A0914D01B0914E0179018A01E81A9A
:1013F000F90A0A0B1B0BD801C70187399105A10512
:10140000B105A8F080913301813089F48C819D81F0
:101410008D37954160F081E080934A0185E290E04C
:1014200025E230E0F90120812460FC012083209135
:1014300028013091290140912A0150912B0180917E
:101440004B0190914C01A0914D01B0914E01790159
:101450008A01E81AF90A0A0B1B0BD801C701CD97BC
:10146000A105B10560F080913301813041F48C8198
:101470009D818131974218F081E080937301209122
:1014800028013091290140912A0150912B0180912E
:101490004B0190914C01A0914D01B0914E01790109
:1014A0008A01E81AF90A0A0B1B0BD801C70181351A
:1014B0009105A105B10510F1809133018823F1F464
:1014C0008C819D8184339142C8F481E080937201C4
:1014D00015C0109272011092730110927201109255
:1014E0007301809143019091440190933C0180935A
:1014F0003B011092460103C0000001C00000809132
:101500003601882329F4809145019B81981721F1A8
:1015100080913601882371F52091280130912901AD
:1015200040912A0150912B0180914B0190914C01E7
:10153000A0914D01B0914E01281B390B4A0B5B0B5A
:1015400080914F0190915001CC01A0E0B0E02817AC
:1015500039074A075B0770F085E290E025E230E04A
:10156000F90120812B7FFC01208310924A0181E048
:101570008093360100002A960FB6F894DEBF0FBEA6
:10158000CDBFDF91CF911F910F91FF90EF90DF9032
:10159000CF900895CF93DF9300D000D01F92CDB7A6
:1015A000DEB769837A838B839C834D838D81813001
:1015B000D1F420E030E040EA51E469817A818B8106
:1015C0009C8108D5DC01CB0120E030E041EE54E401
:1015D000BC01CD014DD3DC01CB01BC01CD0118D440
:1015E000DC01CB0136C08D818823D1F425E535E5BA
:1015F00045E052E469817A818B819C81EBD4DC01E6
:10160000CB0120E030E04AE754E4BC01CD0130D307
:10161000DC01CB01BC01CD01FBD3DC01CB0119C046
:1016200020E030E040EA51E469817A818B819C813D
:10163000D1D4DC01CB0120E030E041EE54E4BC0128
:10164000CD0116D3DC01CB01BC01CD01E1D3DC011E
:10165000CB010F900F900F900F900F90DF91CF91D3
:101660000895CF92DF92EF92FF920F931F93CF9343
:10167000DF93CDB7DEB72A970FB6F894DEBF0FBE63
:10168000CDBF89836A834B832C831E830D83F886A9
:10169000EF82DA86C9868981813009F059C080E0FD
:1016A00090E0A0EFB2E48093530190935401A09393
:1016B0005501B09356018091530190915401A0912E
:1016C0005501B091560141E0BC01CD0163DF90931B
:1016D0000601809305018A81282F30E084EF91E094
:1016E000289FA001299F500D389F500D1124CA0139
:1016F0009093520180935101809151019091520138
:10170000CC01A0E0B0E0BC01CD01AED3DC01CB0147
:101710009C01AD0160E070E080EF92E411D3DC0148
:10172000CB018093570190935801A0935901B09336
:101730005A011092470185E290E025E230E0F9017C
:1017400020812B7FFC0120831092490110924801D7
:101750008C81813009F014C18981882309F010C17E
:1017600089859A850F9708F459C08B81813009F0DB
:1017700055C080914701813009F450C080915101DA
:1017800090915201892B09F449C085E290E025E24D
:1017900030E0F90120812460FC01208381E0809306
:1017A000490180E090E0A0E4B2E48093530190937B
:1017B0005401A0935501B093560141E060E070E000
:1017C00080E492E4E7DE909306018093050181E0D6
:1017D0008093470188EC90E09093520180935101EF
:1017E0008091510190915201CC01A0E0B0E0BC0188
:1017F000CD013AD3DC01CB019C01AD0160E070E08A
:1018000080EF92E49DD2DC01CB018093570190934D
:101810005801A0935901B0935A01B1C089859A85A6
:10182000039728F080914701813009F4A8C0898589
:101830009A850497D0F4809147018130B1F481E01A
:10184000809348018091280190912901A0912A015B
:10185000B0912B018093370190933801A093390107
:10186000B0933A01109247018AC0809148018130BB
:1018700009F047C08091510190915201892B09F4E0
:10188000C8C08091530190915401A0915501B0912D
:1018900056012091570130915801409159015091C2
:1018A0005A01BC01CD01E3D1DC01CB01809353018E
:1018B00090935401A0935501B09356018091530128
:1018C00090915401A0915501B091560141E0BC01A5
:1018D000CD0160DE90930601809305018091510156
:1018E0009091520101979093520180935101809100
:1018F000510190915201892B09F08BC01092470140
:1019000088C08091510190915201892B09F481C0C6
:101910008091530190915401A0915501B0915601CD
:1019200020915701309158014091590150915A012D
:10193000BC01CD019CD1DC01CB018093530190937C
:101940005401A0935501B093560180915301909199
:101950005401A0915501B091560141E0BC01CD0167
:1019600019DE9093060180930501809151019091B9
:101970005201019790935201809351014AC049C08E
:101980008091510190915201892B09F443C08091BB
:10199000530190915401A0915501B09156012091AD
:1019A0005701309158014091590150915A01BC01A1
:1019B000CD015DD1DC01CB018093530190935401A3
:1019C000A0935501B0935601809153019091540119
:1019D000A0915501B091560141E0BC01CD01DADD85
:1019E00090930601809305018091510190915201DD
:1019F0000197909352018093510185E290E025E296
:101A000030E0F90120812B7FFC01208310924901F5
:101A100001C000008091370190913801A0913901F7
:101A2000B0913A019C01AD01285A3D4F4F4F5F4F95
:101A30008091280190912901A0912A01B0912B0158
:101A400082179307A407B507A8F080914901813058
:101A500089F480914801813069F485E290E025E2C3
:101A600030E0F90120812B7FFC0120831092490195
:101A70001092480100002A960FB6F894DEBF0FBE00
:101A8000CDBFDF91CF911F910F91FF90EF90DF902D
:101A9000CF900895CF93DF93CDB7DEB780912D011E
:101AA000882329F080912D018A5080932D01809107
:101AB0002E01882329F080912E018A5080932E01D7
:101AC0008091340190913501892B51F0809134013E
:101AD000909135010A97909335018093340102C0AB
:101AE00010922F010000DF91CF9108951F920F9265
:101AF00000905F000F92112400905B000F922F93D3
:101B00003F938F939F93EF93FF93CF93DF93CDB743
:101B1000DEB7F89480912C01882F90E081309105F8
:101B200089F1823091051CF4892B49F08DC08230F7
:101B3000910509F44CC0039709F468C085C08EE292
:101B400090E02EE230E0F90120812F7EFC0120831D
:101B500080912F01882349F085E290E025E230E072
:101B6000F90120812061FC01208388E890E0209128
:101B70003B0130913C01FC013183208381E0809363
:101B80002C0162C085E290E025E230E0F90120817D
:101B90002F7EFC0120838091510190915201892B6D
:101BA00049F085E290E025E230E0F90120812062F1
:101BB000FC01208388E890E0209105013091060126
:101BC000FC013183208382E080932C013DC085E2BB
:101BD00090E025E230E0F90120812F7DFC01208397
:101BE0008EE290E02EE230E0F90120812860FC01D5
:101BF000208388E890E02091000130910101FC01F0
:101C00003183208383E080932C011EC08EE290E01C
:101C10002EE230E0F9012081277FFC0120838EE253
:101C200090E02EE230E0F90120812061FC01208368
:101C300088E890E02091000130910101FC0131839E
:101C4000208310922C01000078940000DF91CF9146
:101C5000FF91EF919F918F913F912F910F90009263
:101C60005B000F9000925F000F901F9018955058E6
:101C7000BB27AA270ED070C161D130F066D120F009
:101C800031F49F3F11F41EF456C10EF4E095E7FBCA
:101C90004CC1E92F72D180F3BA176207730784072A
:101CA000950718F071F49EF58AC10EF4E0950B2E9D
:101CB000BA2FA02D0B01B90190010C01CA01A0019E
:101CC0001124FF27591B99F0593F50F4503E68F1F9
:101CD0001A16F040A22F232F342F4427585FF3CF3A
:101CE000469537952795A795F0405395C9F77EF40B
:101CF0001F16BA0B620B730B840BBAF09150A1F054
:101D0000FF0FBB1F661F771F881FC2F70EC0BA0FD9
:101D1000621F731F841F48F4879577956795B79561
:101D2000F7959E3F08F0B3CF9395880F08F0992759
:101D3000EE0F979587950895D4D008F481E0089523
:101D40000CD00AC102D140F0F9D030F021F45F3F4D
:101D500019F0EBC0511134C1EEC00FD198F39923A3
:101D6000C9F35523B1F3951B550BBB27AA2762175F
:101D70007307840738F09F5F5F4F220F331F441FA4
:101D8000AA1FA9F333D00E2E3AF0E0E830D09150DC
:101D90005040E695001CCAF729D0FE2F27D0660FC9
:101DA000771F881FBB1F261737074807AB07B0E808
:101DB00009F0BB0B802DBF01FF2793585F4F2AF01E
:101DC0009E3F510568F0B1C0FBC05F3FECF3983E09
:101DD000DCF3869577956795B795F7959F5FC9F77B
:101DE000880F911D9695879597F90895E1E0660F04
:101DF000771F881FBB1F621773078407BA0720F07D
:101E0000621B730B840BBA0BEE1F88F7E0950895E5
:101E1000BCD088F09F5790F0B92F9927B751A0F008
:101E2000D1F0660F771F881F991F1AF0BA95C9F76E
:101E300012C0B13081F0C3D0B1E00895C0C0672FA7
:101E4000782F8827B85F39F0B93FCCF3869577951E
:101E50006795B395D9F73EF4909580957095619507
:101E60007F4F8F4F9F4F0895E89409C097FB3EF432
:101E700090958095709561957F4F8F4F9F4F9923D7
:101E8000A9F0F92F96E9BB279395F6958795779555
:101E90006795B795F111F8CFFAF4BB0F11F460FF15
:101EA0001BC06F5F7F4F8F4F9F4F16C0882311F06D
:101EB00096E911C0772321F09EE8872F762F05C081
:101EC000662371F096E8862F70E060E02AF09A951C
:101ED000660F771F881FDAF7880F9695879597F911
:101EE0000895990F0008550FAA0BE0E8FEEF1616AB
:101EF0001706E807F907C0F012161306E407F507FE
:101F000098F0621B730B840B950B39F40A2661F071
:101F1000232B242B252B21F408950A2609F4A14014
:101F2000A6958FEF811D811D089597F99F6780E821
:101F300070E060E008959FEF80EC089500240A941B
:101F40001616170618060906089500240A94121694
:101F50001306140605060895092E0394000C11F4C7
:101F6000882352F0BB0F40F4BF2B11F460FF04C074
:101F70006F5F7F4F8F4F9F4F089557FD9058440FCD
:101F8000551F59F05F3F71F04795880F97FB991FD8
:101F900061F09F3F79F08795089512161306140695
:101FA000551FF2CF4695F1DF08C016161706180622
:101FB000991FF1CF86957105610508940895E894FD
:101FC000BB2766277727CB0197F908958ADF08F4A6
:101FD0008FEF08950BD0C0CFB1DF28F0B6DF18F037
:101FE000952309F0A2CFA7CF1124EACFC6DFA0F333
:101FF000959FD1F3950F50E0551F629FF001729F9E
:10200000BB27F00DB11D639FAA27F00DB11DAA1FBC
:10201000649F6627B00DA11D661F829F2227B00D09
:10202000A11D621F739FB00DA11D621F839FA00D94
:10203000611D221F749F3327A00D611D231F849FE4
:10204000600D211D822F762F6A2F11249F5750403B
:102050008AF0E1F088234AF0EE0FFF1FBB1F661FD6
:10206000771F881F91505040A9F79E3F510570F08F
:102070005CCFA6CF5F3FECF3983EDCF38695779577
:102080006795B795F795E7959F5FC1F7FE2B880F8A
:0E209000911D9695879597F90895F894FFCFC6
:08209E0008070A4B00080700C7
:00000001FF
